:020000040800F2
:10000000B8250020DD010008F73F00085D39000831
:10001000F53F0008511500083555000800000000A4
:10002000000000000000000000000000390100088E
:1000300081160008000000007D010008E54D000861
:10004000F7010008F7010008F7010008F7010008B0
:10005000F7010008F7010008F7010008F7010008A0
:10006000F7010008F7010008F7010008F701000890
:10007000F7010008F7010008F7010008F701000880
:10008000F7010008F7010008F7010008F701000870
:10009000F7010008F7010008F701000883160008BF
:1000A000F7010008F7010008F7010008F701000850
:1000B000F7010008F7010008F7010008F701000840
:1000C000F7010008F7010008F7010008F701000830
:1000D000F701000809540008F7010008F7010008BB
:1000E000F701000815490008F7010008F7010008AA
:1000F000F701000800000000F7010008F701000800
:100100000000000000000000F7010008F7010008EF
:10011000F7010008F7010008F701000800000000DF
:10012000F7010008DFF80CD000F07CFD0048004724
:100130008D6A0008B8250020204B19680868B0E8CF
:10014000F00F80F30988BFF36F8F4FF0000080F34A
:1001500011884EF00D0E7047000000000648006840
:10016000006880F3088862B661B6BFF34F8FBFF3B3
:100170006F8F00DF00BF00BF08ED00E0EFF30980E4
:10018000BFF36F8F0D4B1A6820E9F00F106008B5B0
:100190004FF0500080F3118807F0F4F94FF00000A1
:1001A00080F31188BDE8084019680868B0E8F00FCE
:1001B00080F30988BFF36F8F704700BF00000020F5
:1001C000EFF311804FF0500181F31188704780F3F5
:1001D00011887047EFF3058070470000064880479C
:1001E00006480047FEE7FEE7FEE7FEE7FEE7FEE71C
:1001F000FEE7FEE7FEE7FEE75D4F00082501000889
:1002000040EA01039B0703D009E008C9121F08C098
:10021000042AFAD203E011F8013B00F8013B521E18
:10022000F9D27047D2B201E000F8012B491EFBD28F
:1002300070470022F6E710B513460A4604461946F1
:10024000FFF7F0FF204610BD421C10F8011B0029EB
:10025000FBD1801A704730B504460020034600E009
:100260005B1C934203D2E05CCD5C401BF8D030BDF8
:100270002DE9F0410E460546002400E0641C285D8F
:1002800000F0B8FB0746305D00F0B4FB381A02D12D
:10029000295D0029F2D1BDE8F081F0B480EA0102C5
:1002A000D40F4200B2EB410F02D20246084611467B
:1002B0004A0042D0C30DDDB2C1F3C752AD1A202DA2
:1002C00035DAC1F3160141F4000204B15242C5F11E
:1002D000200602FA06F12A411044B3EBD05F23D086
:1002E000C4B1012DA0EBC35009DCF0BC4FF00042BB
:1002F00002EAC352DBB200F5000000F0D8BB4000B8
:1003000000F1807000EBC350A0F1807040EAD17022
:10031000490009E0490841EAC071A0EBC35000F56B
:100320000000400800EBC350F0BC00F0B7BB6142D6
:10033000012202EB4101001BF6E7F0BC704781F09F
:100340000041AAE780F00040A7E780EA010210B56B
:1003500002F00043400022D04A001FD0010E01EB02
:100360001261C0F35600C2F3560240F4000042F49A
:100370000002A0FB022000047F39140400D0401CBE
:1003800050EA124001D44000491EC2B20C0604EBF0
:10039000D010401C4008802A02D003E0002010BD8D
:1003A00020F00100002900DA0020184310BD30B40D
:1003B00080EA010202F0004530F0004221F00040E6
:1003C00013D090B1C30DD40DC2F31601C0F31600C3
:1003D000E41A41F4000140F400027D34914201D35B
:1003E000641C00E04900002C02DA30BC0020704799
:1003F0004FF400000023914201D3891A03434008BF
:100400004FEA4101F7D151B1914202D14FF0004181
:1004100005E002D24FF0010101E06FF0010103EBB2
:10042000C450284430BC00F039BB2DE9FE4F804653
:1004300081EA0300C00F0C46009021F0004123F038
:100440000045B8EB0200A94105D24046214690463E
:100450001C460B46024623F00040104347D0270DB0
:10046000C7F30A00C3F30A510290401A01904028D2
:100470006BDAC3F3130040F4801B0098924620B15E
:100480000023D2EB030A63EB0B0B01985946C0F132
:100490004002504600F07DFA06460D465046594649
:1004A000019A00F095FA10EB08006141002487EAF8
:1004B000115284EAE7731A4340D0009A62B3019A5A
:1004C000012A4FEA075215DC001B61EB02014FF0D5
:1004D000004202EA0752CDE90042001C41F58011BA
:1004E00032462B4600F020FB03B0BDE8F08F4046BB
:1004F0002146F9E7001B61EB0201001C41F5801366
:1005000000185B412018A2F5001747EB030140EAF1
:10051000D570B6196D4111E06D084FEA360645EA0F
:10052000C0754FEA0752001B61EB0201001C41F548
:10053000801149084FEA30000019514132462B46DC
:1005400003B0BDE8F04F00F0E0BA0098012240008F
:100550000023D0EB020263EBE073009821464FEAE0
:10056000E074B8EB000061EB0401E9E783F00043BD
:100570005BE781F0004158E72DE9FE4F81EA030473
:1005800004F0004421F0004100944FF0000B23F0F0
:10059000004350EA01045ED052EA03045BD0C3F387
:1005A0000A54C1F30A552C44A4F2F3340194A0FB7D
:1005B0000254C1F3130141F48011C3F3130343F454
:1005C000801301FB024400FB034E840A970A44EAAD
:1005D000815447EA8357A4FB076802958D0A05FBFF
:1005E00007854FEA932C04FB0C542705029D4FEA24
:1005F000065847EA1637B5EB08056EEB070C870E71
:10060000920E47EA811742EA8312A7FB0201B6EB7A
:100610000B0164EB00042B0D43EA0C335E1844EB32
:100620001C50DA465146E7FB0201C5F313044FEABA
:100630000B3343EA14534FEA0432019C43EA0603A6
:10064000A4F10C040294009CCDE900B400F06CFA13
:1006500003B0BDE8F08F00200146F9E72DE9F04D29
:1006600081EA030404F0004B21F0004514464FF0EA
:10067000000A23F0004150EA050220D054EA0102AA
:100680001DD0C5F30A570246C5F31303C1F3130087
:10069000C1F30A5640F4801543F48013A7EB060813
:1006A000101BD64608F2FD3873EB050002D308F1A3
:1006B000010801E092185B41B8F1000F03DA002055
:1006C0000146BDE8F08D00204FF4801106468446B7
:1006D0000EE0171B73EB050705D3121B63EB050335
:1006E00006434CEA010C49084FEA300092185B417E
:1006F00050EA0107EDD152EA030012D082EA040069
:1007000083EA0501084305D0101BAB4106D2012244
:10071000002306E000224FF0004302E06FF00102E8
:1007200053101AEB06004CEB085110EB0A0041EB9A
:100730000B01BDE8F04D00F0E8B970B521F00043C1
:1007400003430CD0C1F30A550024D5EB040564EB38
:100750000403D617AD1AB34102DB0020014670BD79
:10076000201841EB025170BDC10F80EAE0700844CF
:10077000CA079623002100F09AB996230022114659
:1007800000F095B900F0004220F00040C10DC0F328
:10079000160040F400007F2901DA002070479629F6
:1007A00003DCC1F19601C84001E096398840002A77
:1007B000F4D04042704720F00040C10DC0F3160055
:1007C00040F400007F2901DA00207047962903DCFD
:1007D000C1F19601C840704796398840704770B59E
:1007E000C1F30A5201F000450024C1F3130140F2A5
:1007F000FF3341F480119A4201DA002070BD40F2CB
:1008000033439A42A2F2334203DC524200F0D0F862
:1008100000E090402C43F1D0404270BDC1F30A5239
:1008200010B5C1F3130140F2FF3341F480119A4235
:1008300001DA002010BD40F233439A42A2F2334263
:1008400003DC524200F0B4F810BD904010BD00F03F
:10085000004230F000400AD0C10D01F56071C0F3D4
:10086000160042EA0151C2084007114370470020B8
:100870000146704730B5041E71F1000404DB4FF0EF
:100880000044404264EB0101141E73F1000405DBD7
:100890001C464FF00043524263EB04038B4208BFF7
:1008A000824230BD01F0004330B421F0004150EAF3
:1008B000010206D00A0DA2F56072C1F31301002AED
:1008C00002DC30BC00207047440F44EAC104C10080
:1008D000E01830BC00EBC25000F0E0B8002801DBAB
:1008E000C0F10040002901DBC1F1004181427047A5
:1008F000002801DBC0F10040002901DBC1F100410B
:100900008842704730B50B46014600202022012462
:1009100009E021FA02F59D4205D303FA02F5491BCD
:1009200004FA02F52844151EA2F10102F1DC30BDE3
:100930002DE9F05F0546002092469B468846064614
:10094000814640241BE0284641464746224600F0A7
:100950002FF853465A46C01A914110D311461846F3
:10096000224600F016F82D1A67EB01084F46224682
:100970000120002100F00DF817EB00094E41201E68
:10098000A4F10104DFDC484631462A464346BDE86F
:10099000F09F202A04DB203A00FA02F10020704781
:1009A0009140C2F1200320FA03F3194390407047AD
:1009B000202A04DB203A21FA02F00021704721FAB4
:1009C00002F3D040C2F1200291400843194670471B
:1009D000202A06DBCB17203A41FA02F043EAE07303
:1009E00006E041FA02F3D040C2F1200291400843F0
:1009F00019467047A0F14101192900D820307047ED
:100A00000FB4002300B589B00CA900910B996FF0C9
:100A10000042CB601E4B06931E4B07930423CDE987
:100A200001321D4A089202466B46002000F092F9FE
:100A300009B05DF814FB70B586B006464FF0FF3084
:100A40000091CDE90101002015460C460490324684
:100A5000694604A8FFF7D4FF03460498211825B17E
:100A600008B10A4600E022462A6000280DD0002B7B
:100A700002DD0098884208D0081B0094CDE90104EB
:100A80003246694604A8FFF7BBFF06B070BD000000
:100A90008D0F0008AB0F0008490C00080029A8BF03
:100AA0007047401C490008BF20F00100704710B497
:100AB000B0FA80FC00FA0CF050EA010404BF10BC4C
:100AC000704749B1CCF1200421FA04F411FA0CF179
:100AD00018BF012121430843A3EB0C01CB1D4FEAB2
:100AE00000614FEA102042BF002010BC704700EBAD
:100AF000C35010440029A4BF10BC7047401C4900DB
:100B000008BF20F0010010BC704710B5141E73F12F
:100B1000000408DA401C41F1000192185B411A43BD
:100B200001D120F0010010BD2DE9F04D92469B4609
:100B300011B1B1FA81F202E0B0FA80F220329046AF
:100B4000FFF727FF04460F4640EA0A0041EA0B017F
:100B500053465A46084313D0114653EA010019D0B0
:100B6000C8F140025046FFF723FF05460E465046A7
:100B700059464246FFF70DFF084305D0012004E027
:100B800020463946BDE8F08D0020054346EAE07670
:100B90002C4337430A986305E40AA0EB08000022BF
:100BA000FD0A44EA47540A3002D500200146E9E72D
:100BB000010510196941DDE9084500196941BDE8E1
:100BC000F04DA2E7C1F30A52C1F3130140F2FF3323
:100BD00041F480119A4202DA00200146704740F247
:100BE00033439A42A2F2334202DC5242FFF7E0BEA4
:100BF000FFF7CFBE30B5041E71F1000404DB4FF0E7
:100C00000044404264EB0101141E73F1000405DB53
:100C10001C464FF00043524263EB0403994208BF65
:100C2000904230BD064C074D06E0E06840F00103FD
:100C300094E8070098471034AC42F6D3FFF776FAF1
:100C400090800008B0800008C0B24FF4F05100F06E
:100C5000BDB900002DE9FF4F087881B09946FF2803
:100C600005D0491C2D2804D00024002308E00023CF
:100C70000BE00124F9E703EB830300EB4303491C7A
:100C80000878FF28F7D104B15B4200200090147867
:100C900001462D2C01D02B2C04D1521C2D2C12D00E
:100CA0000024009400251678FF2E0ED00A24A0FB05
:100CB00004C801FB0481002700FB0711521C16EB3E
:100CC0000C006941EFE70124EBE7994450EA010287
:100CD0000ED00024AA4D2646DFF8A88200F08AF93B
:100CE00082468B46B9F1000009DAC9F100071BE022
:100CF00001980021C0E9001105B0BDE8F08F07465A
:100D000012E0F80707D022462B4630464146FFF74F
:100D100033FC0646884622462B4610461946FFF706
:100D20002BFC04460D467F10002FEAD1B9F1000FCD
:100D3000324643465046594602DAFFF78FFC01E03F
:100D4000FFF71AFC009A0AB181F00041019AC2E94A
:100D50000001D1E72DE9FF4F1F468DB0D7E90146CD
:100D60004FF0FF382E2045464FF000090B90B9692F
:100D70006D1C0E988847396A824688470028F6D14C
:100D8000BAF1FF3F0AD024F4D064002E11DDBAF18D
:100D90002B0F08D0BAF12D0F0BD102E0404611B055
:100DA000ABE744F48064B9696D1C0E9888478246AD
:100DB000761E6946600501D52D2000E02B208DF8B8
:100DC000000001F1010B0DF1200809E0B9696D1C6B
:100DD0000E98884782460F9844F40074761E05608A
:100DE000002E02DDBAF1300FF0D00B998A453ED1CA
:100DF00044F0800406E00F99681CA9F1010944F44D
:100E000000740860B9696D1C761E0E98884782468A
:100E10003028F0D02BE00B998A4505D1200603D469
:100E200044F08004761E18E0504605F061F808B3DF
:100E30000DF11301761E44F400748B4508D2AAF11B
:100E400030000BF8010B200607D5A9F1010003E0E3
:100E5000200602D409F101008146A00502D50F99B0
:100E6000681C0860B9696D1C0E9888478246002E80
:100E7000D1DC53E0002E51DDBAF1650F02D0BAF19A
:100E8000450F4BD1A00549D5B9696D1C24F44074B8
:100E9000761E0E9888478246002E0CDD2B2804D043
:100EA000BAF12D0F07D144F48074B9696D1C0E9806
:100EB00088478246761EE00501D52D2100E02B21D2
:100EC00008F8011BCDF82C8021E00DF12901761ED8
:100ED00044F4007488450CD2AAF1300010F0FF00F1
:100EE00088F8000002D10B99884509D908F101085A
:100EF00006E0E00501D5244801E042F20F7081468A
:100F0000B9696D1C0E98884782460F980560002EBF
:100F100004DD504604F0ECFF0028D6D1F9690E98A4
:100F20008847FF208BF8000088F80000002006901A
:100F300007904B466A4608A906A8FFF78BFEA00556
:100F400002D46FF001002AE714F0240F0AD0E00762
:100F500014D1DDE906123868031D3B600068C0E962
:100F600000120BE0DDE90601FFF79CFC0146E007FB
:100F700004D13868021D3A600068016028460EE717
:100F8000000024400000F03FF1D8FFFF426842B16A
:100F9000016811F8013B23B1521EC0E90012184646
:100FA00070470121C160881E704742685AB1C3680A
:100FB000016843B983688B4205D0491E521CC0E9C1
:100FC0000012002070474FF0FF3070477F2801D992
:100FD000002208E0064A02EB5002C007127800D156
:100FE000120902F00F0201209040084070470000F3
:100FF000388000080EB540F2334202920022CDE95B
:1010000000221346FFF790FD03B000BD7CB51BA383
:101010000D46D3E90013CDE9001302F0030100F0FF
:10102000070041EA001040F008008DF8010000249C
:101030000121684600F0A0F82946684600F068F8EB
:10104000012D04D0022D05D0032D0AD014E09DF807
:10105000004011E09DF800009DF8011004EB002015
:1010600009E09DF800009DF8011004EB004000EB42
:1010700001209DF802100C1820467CBD03000000E2
:101080000000000010B5012400F018F8002208212B
:10109000024800F028FF204610BD0000000002407A
:1010A00010B5024601210020FFF7B0FF10F0800FBD
:1010B00001D0002010BD012010BD000010B586B089
:1010C00014216846FFF7B5F803F056FD0E48016895
:1010D00041F00101016000680C4C00F00100059036
:1010E000082000900120019000200290032003902E
:1010F0006946204600F02CFE01220821204600F01F
:10110000F2FE06B010BD00001C3802400000024094
:101110002DE9FF4700270D4682463C4602AE4FF0C0
:10112000FF38DFF84C90029713E000BFCDF80C8039
:101130000197D9F800000090012301AA03A90D48E6
:1011400002F0C9F908B103F00DFD01983055641C97
:10115000E4B2AC42EAD3002204E0B15C0AF8021027
:10116000521CD2B2AA42F8D304B02846BDE8F08798
:101170007C000020400500202DE9FC410D460021A7
:101180000A466E46009104E081184978B154521C19
:10119000D2B2AA42F8D300240A4F0DE0305D8DF898
:1011A0000400012201A908483B6802F0F3F808B1E5
:1011B00003F0D8FC641CE4B2AC42EFD32846BDE88F
:1011C000FC8100007C000020400500207CB515A5B6
:1011D00003F00303D5E9004500F0070043EA0010DF
:1011E000CDE900458DF80100C8B2012A06D0C1F34F
:1011F0000723022A05D0032A0DD006E08DF802004D
:1012000003E08DF803008DF80230521CD1B268461D
:10121000FFF7B2FF7CBD8DF804008DF80330080C99
:10122000ECE7000003000000000000002DE9F041A1
:10123000144F15460E46044600220821384600F099
:1012400052FE01220821384600F04DFE0C21E3B287
:1012500001220220FFF7BAFF7007800E40EA450026
:1012600040F044010122E3B21046FFF7AFFFE0B2C5
:1012700000F00AF8E2B2BDE8F04102210320FFF7D6
:10128000C5BE00000000024038B504463220ADF86B
:10129000000007E02046FFF703FF002808D10520E3
:1012A00000F092FCBDF80010481EADF80000F1D22D
:1012B00038BD0000F8B500260446009600680168B5
:1012C000C94349062AD5816841F00101816014486B
:1012D00014490068B0FBF1F000EB400000E0401E54
:1012E00000900028FBD100F003FE054611E000BF8E
:1012F00000F0FEFD401B02280BD9E06C40F010000E
:10130000E064206D40F00100206584F84860012011
:10131000F8BD20680068C0434006E9D40020F8BD4D
:101320003800002040420F003EB511480F4901240B
:101330000160002141608160C160016141618161A2
:10134000C1610162C0E90914C0E90B141022C0E9AF
:101350000D21C16300F0A6FA0920CDE900040520A3
:1013600002906946024800F0F5F93EBD00240140B4
:10137000EC0400202DE9F0478146B0F900004FF061
:10138000000780460D0044463E463ED00FE000BFB9
:1013900039F91600404500DD8046A04200DA0446D7
:1013A000FFF7E2F93946FEF778FF0746761CAE42B2
:1013B000EED3022D0ED92046FFF7D6F93946FEF7B7
:1013C000C1FF04464046FFF7CFF92146FEF7BAFFBA
:1013D0000746AD1E2846FFF7D0F901463846FEF70E
:1013E000E6FF0B4C10F1FF4F06D2FFF730FA002258
:1013F0002346FFF71AF805E0FFF729FA00222346F3
:10140000FFF7B4F8FFF7EBF900B2BDE8F087000092
:101410000000E03F10B503F0F1FA0A49012008701E
:10142000034600219522084603F094FB08B10120F1
:1014300010BD0023FF221946012003F08BFB00287A
:10144000F7D110BDC40000202DE9F04717461E4615
:1014500089464FF00008044601254346FF223946DD
:10146000102003F03BFB58B912E000BF03F064FB0F
:1014700009EB08010023FF22112003F02FFB10B11C
:101480000120BDE8F087FE2003F002FB30B101250A
:10149000761EEBD203F050FB2846F2E7002504E06D
:1014A00003F0DEFA04F8010B6D1CBD42F8D3B8441A
:1014B00003F0D6FA03F0D4FA0025E9E72DE9F04766
:1014C0001E4617468A464FF000080125044637E0BD
:1014D0000AEB08010023FF22182003F0FFFA10B1E5
:1014E0000120BDE8F087FF2003F0E4FAFE2003F0BE
:1014F000E1FA002504E0207803F0DCFA641C6D1C9E
:10150000BD42F8D3B84403F0ABFA03F0A9FA4FF0A8
:10151000000900BF03F0A4FA00F01F05052D08D054
:101520000B2D0CD00D2D0AD009F10109B9F1400F96
:10153000F0D903F095FA0028FBD0052D06D001253F
:10154000761EC5D203F0F8FA2846CAE70025F7E769
:10155000FEE7000070B50026324633463546344675
:1015600008B14278837809B10D784C780C2A00D9FB
:1015700001221F2B00D90123172D00D900253B2C58
:1015800000D90024521ED0B20E4908E001EB8002BF
:101590005268C2EB021202EB420206EB4216401EF8
:1015A000C0B2F3D25B1ED8B2C0EB001000EB40001B
:1015B00006EB4010C5EB051100EB81002044401CF8
:1015C00070BD00008C7F00082DE9F0472649804659
:1015D000884202DA2548BDE8F0872549884501DDC3
:1015E0002448F8E700260E25234F07246FF03B0917
:1015F00057F824104046FFF771F901D2254606E05E
:1016000057F824104046FFF773F924D22646A8194C
:101610004408A81B0128EBD104EB840109EB41002D
:1016200057F8266057F82540FFF79EF805463146E3
:101630002046FEF784FE044631464046FEF77FFE14
:101640000E49FEF782FE2146FEF7B1FE2946BDE8AF
:10165000F047FEF722BE04EB840109EB4100BDE830
:10166000F047FFF781B80000F6A89842000070C26A
:10167000D7E302430000A042C07F000800002041E1
:101680007047402000F058BB184A00211068C3057D
:10169000174804D5416941F0020141619115136871
:1016A0009B0505D5436943F00103436141F4007193
:1016B00013681B0505D5436943F00403436141F4F6
:1016C000006113689B0405D5436943F0100343612F
:1016D00041F400511368DB0405D5436943F020034E
:1016E000436141F48051116070470000183C024092
:1016F0001C09002070B5054600F0FAFB0646144CA4
:1017000009E0681C07D025B100F0F2FB801BA8425D
:1017100001D9032070BD2068C007F2D1206880077E
:1017200001D5022020602068C0050BD42068000588
:1017300008D42068800405D42068C00402D420683E
:10174000800503D5FFF7A0FF012070BD002070BD0C
:10175000183C0240F8B50024009490F84820254633
:10176000012A12D0012280F848204A681F23072A44
:101770000DD20668376C521E02EB820293409F43E3
:101780000B6893401F43376435E00220F8BD0D2AF3
:101790000BD20768FE6BD21F02EB820293409E437E
:1017A0000B6893401E43FE6325E0132A0BD20668A4
:1017B000B76B0D3A02EB820293409F430B68934054
:1017C0001F43B76317E00668192A0AD2776B133AEA
:1017D00002EB820293409F430B6893401F43776361
:1017E00009E0376B193A02EB820293409F430B6882
:1017F00093401F4337630A6807230A2A0AD2066800
:10180000776902EB420293409F438B6893401F43EA
:1018100077611CE0142A0BD207683E690A3A02EB92
:10182000420293409E438B6893401E433E610EE00C
:101830001A2A0BD80768FE68143A02EB420293405A
:101840009E438B6893401E43FE6000E000BF0A6821
:10185000102A01D0112A17D10D4A13681B0213D484
:10186000136843F400031360096810290CD1094977
:10187000094A0968B1FBF2F101EB8101490000E07E
:10188000491E00910029FBD180F848502046F8BD40
:10189000042701403800002040420F000068806D9E
:1018A00070470000F8B504004FF0000503D0E06C6D
:1018B000002610B110E00120F8BD26655B4884F8D1
:1018C0004860016841F001010160006800F001001A
:1018D0000090204600F0B4F8E06CC00678D4E06CCC
:1018E00020F4885040F00200E064514801686268CA
:1018F00021F44031114301606169E0684FF40073E5
:10190000084393FAA3F3E26BB3FA83F3216A9A4094
:1019100011430843022191FAA1F1626AB1FA81F1FF
:1019200002FA01F10843616B102902D0A36B19433D
:101930000843236819684FF48077C943490629D5BD
:10194000A169D4F81CC00843A168D4F810E041EAAA
:101950000C01BE450CD0BEF1010F09D04FF0000CB8
:1019600041EA0C01D4F82CC0BCF1010F02D00AE00E
:10197000BC46F5E76AB3E26C42F02002E264226DF5
:1019800042F0010222655A68DFF8A8C002EA0C02A0
:101990000A435A6021688A68274B1A4002438A60CA
:1019A0002169B94224D0012922D021680A6B22F092
:1019B000F8720A6321688968204A1140814227D160
:1019C0002665E06C20F0020040F00100E0642AE0AF
:1019D00028E0FFE74FF4604C226B9CFAACFCBCFAA9
:1019E0008CFC521E02FA0CF20A4342F40061CAE770
:1019F00021680A6B4FF0F87722F0F873A26A97FA21
:101A0000A7F7B7FA87F7521EBA4013430B63D1E723
:101A1000E06C20F0020040F01000E064206D40F027
:101A20000100206501252846F8BD0000203802404D
:101A300004270140FF16FCFC89F1FFC0FEFF80BFB8
:101A400010B50068164994B0884227D1154801683E
:101A500041F002010160006800F00200129011489C
:101A6000001D016841F400710160006800F400701D
:101A70001290684600F0DAFC102004900120022445
:101A800003900094684600F0AFFD0320CDE90D40BF
:101A900000200F900DA9044800F05AF914B010BDB1
:101AA000002401401C380240000402402DE9F041AE
:101AB000044600680D4681684FF0000749050BD5C4
:101AC0008068C00508D5E06C40F02000E06484F830
:101AD00048700120BDE8F08100F00AFA06460FE0E8
:101AE000681C0DD025B100F003FA801BA84207D96D
:101AF000E06C40F00400E06484F848700320E9E7FB
:101B0000206800688007EBD5A06918B921686FF0DC
:101B100012000860E06C40F40070E06420688168A6
:101B200011F0405F13D1616A89B9016B11F0F87F40
:101B300002D0806840050AD4E06C20F48070E06434
:101B4000E06CC00403D4E06C40F00100E0640020CD
:101B5000C0E710B5044690F84800012822D00120C3
:101B600084F848002046FFF7A5FB00281BD1E16C54
:101B700040F20162914341F48071E16421684A6856
:101B8000520505D5E26C22F4005242F48052E26420
:101B9000E26CD3044FF0000206D5236D23F0060358
:101BA000236502E0022010BD226584F848206FF012
:101BB00022020A6021688A6812F0405FF3D18A68C5
:101BC00042F080428A6010BD31B500F091F90446C0
:101BD00000F08EF90099001B8842F9D338BD00004F
:101BE0000348016841F001010160002070470000D6
:101BF000043C02402DE9F047064631480C461546A4
:101C0000017C01290BD00121814601744CF250372F
:101C10003846FFF76FFD4FF0000A18B14DE0022083
:101C2000BDE8F087C9F814A0DFF89880042E09D029
:101C3000082E13D0102E1DD0022E26D0012E2AD011
:101C400086B33AE0EDB23846FFF754FD58BBD8F8FA
:101C5000001021F48071C8F800102AE0ADB23846B7
:101C6000FFF748FDF8B9D8F8001021F48071C8F8E2
:101C7000001015E03846FFF73DFDA0B9D8F8001078
:101C800021F48071C8F8001003E03846FFF732FDF8
:101C900048B925600EE0ADB23846FFF72BFD10B90C
:101CA000258007E000E008E0EDB23846FFF722FDAE
:101CB00018B925703846FFF71DFD89F810A0AFE769
:101CC0001C090020043C024006480068C00707D0F9
:101CD000044805490830016004490160002070474C
:101CE00001207047043C0240EFCDAB89050403029C
:101CF00010B5072000F062F9282000F05FF90C4CC5
:101D00004021204600F0EAF828B12046BDE8104006
:101D1000402100F0E3B807480168491C40F87C1BEB
:101D2000816F491C8167C16F491CC16710BD0000EC
:101D30000004024008060020044910B50A68024267
:101D400002D00860FFF7D4FF10BD0000140401406A
:101D50002DE9F84FDFF864B100234FF0010C4FF08C
:101D6000030A4FF00F090BF1040EA0E00CFA03F682
:101D7000324072D04C68022C01D0122C0ED1DC08FB
:101D800000EB8408D8F820405D07EF0E09FA07F54C
:101D9000AC430D69BD402543C8F8205007685D007D
:101DA00091F804800AFA05F408F00308A74308FA3A
:101DB00005F848EA0708C0F800804F68012F05D0F1
:101DC000022F03D0112F01D0122F11D18768D1F823
:101DD0000C80A74308FA05F848EA0708C0F808800D
:101DE0004768B7430E79C6F300169E403E434660EF
:101DF000C668A6438C68AC403443C4604C68E400B9
:101E000054D52F4C256845F001052560246823F042
:101E1000030504F0010400942A4C2544AF689C0794
:101E2000240F09FA04F6B743274EB04201D1002629
:101E300015E0264EB04201D1012610E0244EB042FA
:101E400001D102260BE0234EB04201D1032606E069
:101E5000214EB04202D1042601E027E00526A6402B
:101E60003E43AE60DBF800405D464E689443F603A7
:101E700000D514432C60DEF8004075464E6894434C
:101E8000B60300D514432C600C4D08352C684E6801
:101E90009443F60200D514432C60084D0C352C6891
:101EA0004E689443B60200D514432C605B1C0A684C
:101EB00032FA03F47FF45AAFBDE8F88F0004014012
:101EC00020380240000001400000024000040240AF
:101ED00000080240000C0240001002400069084067
:101EE00000D0012070470AB1816170470904FBE707
:101EF00001480068704700009000002070B50400A1
:101F000011D021684CF6CC400860216845F255504C
:101F10000860D4E9000141602168A0688860FFF78B
:101F2000E7FF054609E0012070BD00BFFFF7E0FFB5
:101F3000401B302801D9032070BD2068C0680028EC
:101F4000F4D121684AF6AA200860002070BD00681C
:101F50004AF6AA210160002070470000024801688B
:101F6000491C01607047000090000020094810B52E
:101F7000016841F004010160016841F00201016063
:101F8000032000F051F80F2000F006F800F015F8DB
:101F9000002010BD003C024010B5044600F040FA9D
:101FA0004FF47A71B0FBF1F001F0EEFB0022214614
:101FB000501E00F019F8002010BD704700F01F02FD
:101FC000012191404009800000F1E020C0F880111B
:101FD000704700F01F02012191404009800000F18C
:101FE000E020C0F800117047F0B40E4B1B680C469F
:101FF000C3F30223C3F10705042D00D90425191DDD
:10200000072901D2002300E0DB1E012606FA05F1B4
:10201000491E214099409E40761E16403143F0BC37
:1020200001F0EABF0CED00E0064900F00702086885
:102030004FF6FF03184040EA0220034A10430860AD
:10204000704700000CED00E00000FA05BFF34F8F71
:1020500004480168044A01F4E06111430160BFF3E0
:102060004F8FFEE70CED00E00400FA05024800681F
:1020700000F4C050704700000070004001200102D1
:1020800091FAA1F1024AB1FA81F142F821007047B8
:1020900000000E42094A136823F003030343136050
:1020A0000748026822F004020260012903D040BF01
:1020B00020BF20BF704730BF704700000070004055
:1020C00010ED00E02DE9F84F04460068C10701D18A
:1020D000800778D5DFF868810027D8F80000C000B5
:1020E0000BD4D8F8001041F08051C8F80010D8F88F
:1020F0000000012700F080500090524D2868C00574
:1021000010D4286840F480702860FFF7F1FE06467E
:1021100005E000BFFFF7ECFE801B64285CD8286850
:10212000C005F7D5464E243E3068616800F0C040D7
:1021300001F0C042824204D1A26802F0C042824251
:1021400009D0C1F30140032805D13068800302D5CE
:102150000120BDE8F88F3A4D1035286810F4403062
:1021600052D001F44031814202D02178C90707D111
:10217000A16801F44031814246D02078800743D5E0
:1021800028684FF4000292FAA2F1B1FA81F14FEA05
:10219000810C2D494FF0010A8C4420F44030CCF8DA
:1021A00080A692FAA2F2B2FA82F201EB8201002337
:1021B000C1F880362860C00526D5FFF799FE814614
:1021C0004FF4007B0AE038E0FFF792FEA0EB090134
:1021D00041F28830814201D90320BAE79BFAABF083
:1021E000B0FA80F040F04001BAEB511F01D13168E4
:1021F00000E029689BFAABF2B2FA82F202F01F0209
:102200000AFA02F00142DFD06068C0F301410329FD
:1022100006D1316800F0C04021F0C0410143316077
:102220002868616801F44031084328602FB1D8F86C
:10223000001021F08051C8F80010002089E700004C
:102240002438024000700040000047422DE9F0476A
:10225000DFF8BC8105460E46D8F8000000F001000A
:10226000B04214D2012E05D1D8F8001041F004017B
:10227000C8F80010D8F8001021F001013143C8F867
:102280000010D8F8000000F00100B04271D12878A9
:10229000604C800705D52068A96820F0F00008434D
:1022A00020602878C00771D05A4A5A4B69680120CB
:1022B000083A2C33022910D003292ED001292FD01F
:1022C0005FEA402797FAA7FCBCFA8CFC4CF0200C84
:1022D0005FEA5C1C04D0126803E04FF40037F1E7BA
:1022E0001A6897FAA7F3B3FA83F303F01F03984031
:1022F000024262D0206820F0030008432060FFF70C
:10230000F7FD6968074641F28830022910D0032999
:102310001CD00129814626D034E04FF00077D1E768
:102320000227CFE7FFF7E4FDC11B494501D926E0AD
:1023300081462068C0F381000228F3D126E000BF67
:10234000FFF7D6FDC11B494501D918E08146206839
:10235000C0F381000328F3D118E000BFFFF7C8FDE8
:10236000C11B49450BD82068C0F381000128F5D175
:102370000CE022E0FFF7BCFDC11B494502D9032058
:10238000BDE8F087206810F00C0FF3D1D8F80010EA
:10239000404601F00101B14211D9012E03D101687B
:1023A00041F004010160016821F001013143016045
:1023B000006800F00100B04201D00120E0E7287879
:1023C000400705D52068E96820F4E06008432060F4
:1023D0002878000706D52068296920F4605040EA73
:1023E000C100206000F0BAF82168F02292FAA2F24F
:1023F00001F0F001B2FA82F2D140074A515CC840C4
:10240000064908600F20FFF7C7FD0020B8E700006D
:10241000003C024008380240357F000838000020A8
:10242000014800687047000038000020F0B51F2107
:10243000016031490A684FF0050554034FF000036D
:102440004FF0010201D5456005E00C68E40301D5B9
:10245000426000E043600C68E40701D0C26000E025
:10246000C360254C241D26684FF4F85797FAA7F748
:1024700006F4F856B7FA87F7FE4006610E68F605CF
:1024800001D5826100E0836126684FF07F4797FAAB
:10249000A7F706F07F46B7FA87F7FE40C6612468C3
:1024A00004F460440462144C34342668760501D583
:1024B000856005E02568ED0501D5826000E0836058
:1024C0002468E40701D0426100E043610968C90162
:1024D00002D50221416200E04262074908310A68E0
:1024E00002F4803282620A6802F47012C2620968E1
:1024F00001F440010163F0BD003802400848094979
:10250000006809684FF4E06292FAA2F201F4E06117
:10251000B2FA82F2D140044A515CC84070470000D0
:102520003800002008380240457F00080848094963
:10253000006809684FF4605292FAA2F201F4605107
:10254000B2FA82F2D140044A515CC84070470000A0
:102550003800002008380240457F00081E4A1168F4
:1025600001F00C00042813D0082813D00C2813D035
:10257000101F006800F460414FF4604090FAA0F032
:10258000B0FA80F0C1404FF40040491C88407047C9
:1025900012487047124870474FF4701393FAA3F330
:1025A00001F47010B3FA83F3D8400E4B01F44001EC
:1025B0001268185C4FF4400393FAA3F3B3FA83F361
:1025C000D940491CD20301D5054A00E0034A5043D3
:1025D000B0FBF1F070470000083802400024F4001E
:1025E000001BB7002C7F00082DE9F84F0746007844
:1025F000FB4EFC4DC0074FF0010428D0F8480830CE
:1026000001684FF40038C1F38101022907D0016845
:10261000C1F3810103291BD10068C00318D598FAC2
:10262000A8F0B0FA80F040F02000400901D03068F6
:1026300000E0286898FAA8F1B1FA81F101F01F01D1
:1026400004FA01F108425CD0786800287BD058E099
:10265000786801280AD008B1052811D0306820F424
:1026600080303060306820F4802002E0306840F430
:1026700080303060786828B3FFF73AFC81460BE081
:10268000306840F480203060F0E700BFFFF730FC96
:10269000A0EB0900642872D898FAA8F0B0FA80F08C
:1026A00040F02000400901D0306800E0286898FA26
:1026B000A8F1B1FA81F101F01F0104FA01F1084219
:1026C000E4D01EE0FFF714FC814605E0FFF710FCA4
:1026D000A0EB09006428DED898FAA8F0B0FA80F0E0
:1026E00040F02000400901D0306800E0286898FAE6
:1026F000A8F1B1FA81F101F01F0104FA01F10842D9
:10270000E4D13878DFF8E08280074FF0000B4FF01B
:1027100002095FD5B24808300168C1F3810101297F
:1027200007D00168C1F3810103291CD10068C003EF
:1027300019D499FAA9F0B0FA80F040F020004009CD
:1027400002D0306801E086E0286899FAA9F1B1FA70
:1027500081F101F01F0104FA01F108422BD0F86861
:10276000012878D127E0F868A8B394FAA4F0B0FA69
:1027700080F048F82040FFF7BBFB824606E066E1A8
:10278000FFF7B6FBA0EB0A00022884D899FAA9F15A
:10279000B1FA81F141F02001490901D0316800E02E
:1027A000296899FAA9F0B0FA80F000F01F0004FA45
:1027B00000F00142E4D08A48001D01684FF4F8534C
:1027C00093FAA3F33A69B3FA83F321F4F8519A40E8
:1027D0001143016025E0FFE794FAA4F1B1FA81F119
:1027E00048F821B0FFF784FB824605E0FFF780FB45
:1027F000A0EB0A000228C8D899FAA9F0B0FA80F034
:1028000040F02000400901D0306800E0286899FAC3
:10281000A9F1B1FA81F101F01F0104FA01F10842B6
:10282000E4D138784FF4007AC0067CD56C48083083
:10283000006810F00C0F0FD0B9694FF480700029B8
:1028400072D090FAA0F0B0FA80F048F82040FFF77C
:102850004FFB00907EE087E09AFAAAF0B0FA80F091
:1028600040F02000400901D0306800E028689AFA62
:10287000AAF1B1FA81F101F01F0104FA01F1084255
:1028800002D0B86900286FD05548396A001D006829
:1028900000F4604081421AD9084601F0FFFF002889
:1028A00062D14F48001D01683A6A21F4604111432A
:1028B000016001684FF07F4393FAA3F3FA69B3FA1A
:1028C00083F321F07F419A401143016018E04448AE
:1028D000001D026822F460420A43026001684FF062
:1028E0007F4393FAA3F3FA69B3FA83F321F07F41AC
:1028F0009A4011430160386A01F0D0FF0028CFD11F
:102900004FF4604191FAA1F1386AB1FA81F1C840FF
:102910004FF40041401C8140314808300068F022EB
:1029200000F0F00001E070E040E092FAA2F2B2FAAA
:1029300082F2D0402D4A105CC1402D4801600F202A
:10294000FFF72AFB61E000BFFFF7D2FA0099401AB7
:1029500002287CD89AFAAAF0B0FA80F040F0200061
:10296000400902D0306801E0BCE128689AFAAAF177
:10297000B1FA81F101F01F0104FA01F10842E3D03C
:102980001748001D01683A6A21F460411143016053
:1029900001684FF07F4393FAA3F3FA69B3FA83F324
:1029A00021F07F419A40114301602EE090FAA0F09F
:1029B000B0FA80F048F820B0FFF79AFA009005E0EE
:1029C000FFF796FA0099401A0228C2D89AFAAAF09C
:1029D000B0FA80F040F0200040090BD030680AE0E7
:1029E000003802403438024000004742357F00087A
:1029F0003800002028689AFAAAF1B1FA81F101F0B2
:102A00001F0104FA01F10842DAD13878000753D5E2
:102A1000786948B394FAA4F0B0FA80F008EB80002B
:102A2000C0F88046FFF764FA009005E0FFF760FA0F
:102A30000099401A02288CD899FAA9F0B0FA80F0CF
:102A400040F04000B4EB501F02D1306801E08EE04E
:102A5000286899FAA9F1B1FA81F101F01F0104FA8D
:102A600001F21042E2D027E094FAA4F1B1FA81F128
:102A700008EB8101C1F880B6FFF73AFA009005E053
:102A8000FFF736FA0099401A022870D899FAA9F08F
:102A9000B0FA80F040F04000B4EB501F01D1306834
:102AA00000E0286899FAA9F1B1FA81F101F01F015B
:102AB00004FA01F21042E3D1387840077BD59B48F5
:102AC0004FF000090068C0000AD49848016841F03E
:102AD0008051016000684FF0010900F080500090C3
:102AE00093480168C90511D4016841F480710160FF
:102AF000FFF7FEF9009005E0FFF7FAF90099401A98
:102B0000642834D88A480068C005F5D5B86801281B
:102B10000AD008B1052811D0286820F480702860F8
:102B2000286820F4806002E0286840F48070286003
:102B3000B86848B3FFF7DCF900900DE0286840F46E
:102B400080602860F0E700BFFFF7D2F90099411AD2
:102B500041F2883081420AD89AFAAAF0B0FA80F09D
:102B600040F04000B4EB501F02D1306801E095E026
:102B700028689AFAAAF1B1FA81F101F01F0104FA6A
:102B800001F21042E0D022E0FFF7B2F9009007E036
:102B9000FFF7AEF90099411A41F2883081427DD8A1
:102BA0009AFAAAF0B0FA80F040F04000B4EB501F5F
:102BB00002D1306801E012E028689AFAAAF1B1FA6D
:102BC00081F101F01F0104FA01F21042E0D1B9F1E4
:102BD000000F04D05548016821F080510160786AE7
:102BE000E8B3DFF84891A9F11C09D9F80010C1F346
:102BF0008101032976D002284FF080714FF0007ACE
:102C000058460BD091FAA1F1B1FA81F148F82100B0
:102C1000FFF76EF9B046074656466DE04FF08071FB
:102C200091FAA1F1B1FA81F18A0042495050FFF7BF
:102C30005FF9B3468046564606E000BFFFF758F9F5
:102C4000A0EB0800022854D896FAA6F0B0FA80F05B
:102C500040F02000400903D0DBF8000001E061E013
:102C6000286896FAA6F1B1FA81F101F01F0104FA81
:102C700001F10842E2D1D7E90A103A6BD9F80030E5
:102C8000014323F47D031A431143C9F800104FF0A8
:102C9000807090FAA0F0B0FA80F000E029E08100A6
:102CA00024480C50FFF724F9074604E0FFF720F909
:102CB000C01B02281DD896FAA6F0B0FA80F040F0AA
:102CC0002000400902D0DBF8000000E0286896FAF6
:102CD000A6F1B1FA81F101F01F0104FA01F10842F5
:102CE000E4D01FE020E000BFFFF702F9C01B02287C
:102CF00002D90320BDE8F88F96FAA6F0B0FA80F06A
:102D000040F02000400902D0D8F8000000E0286818
:102D100096FAA6F1B1FA81F101F01F0104FA01F16E
:102D20000842E1D10020E5E70120E3E72438024032
:102D30000070004000004742704700000348806870
:102D4000002801D003F02EBF704700003C00002097
:102D500010B5044600688168C9040CD5C068C00578
:102D600009D52046FFF7EAFF2068C16801F080011D
:102D700061F4C071C1602068816889040CD5C068A5
:102D8000800509D52046FFF7D7FF2068C16801F00C
:102D9000800161F42071C16003494FF40030086084
:102DA0000120607710BD00001404014010B50068D8
:102DB0000B4641680D480140080CD870C1F304244B
:102DC0005C7001F03F049C70C1F34231197052B93C
:102DD00001F0A6FDD870587801F0A2FD58709878DF
:102DE00001F09EFD9870002010BD00003FFFFF0025
:102DF00010B50C460168896A89B261600168096989
:102E0000C1F30E01A160006801680E480140C1F3E2
:102E100005402070C1F30623637001F07F03A370A7
:102E2000402303EA1141E17052B901F079FD2070AD
:102E3000607801F075FD6070A07801F071FDA07000
:102E4000002010BD7F7F7F0070B5040002D0607F3E
:102E500010B106E0012070BD00202077204600F070
:102E600041F8022060772168CA2048622168532017
:102E70004862204601F068FDFF210028206803D049
:102E8000416204206077E5E78268154B1A40826052
:102E90002268906863681843D4E904352B431843CB
:102EA00090602268E068106120680269238942EA24
:102EB000034202612068C26822F08002C26020687A
:102EC000026C22F4802202642068026CA3691A4317
:102ED00002642068416201206077002070BD00001C
:102EE000BFFF8FFF10B50068194992B088422CD1FE
:102EF0001848016841F080510160006800F080507E
:102F00001090FFF7BBF80C200090002001240990DE
:102F1000029405946846FFF767FB2004CDE90D4055
:102F20000DA8FFF7CFF8A00590FAA0F00A49B0FA73
:102F300080F001EB8000C0F8804600220A212920A1
:102F4000FFF752F82920FFF744F812B010BD000037
:102F50000028004024380240000047422DE9F05F7D
:102F60000446007F0D46012848D00120207702202A
:102F700060772068002780684FEA4060EAB3002845
:102F800059DA287801F0CCFC95F8200001F0C8FC53
:102F9000A8782978EA7840EA01406978090241EA8C
:102FA0000241084395F8201040EA0166E869A969E2
:102FB000064368690643686840EA01082168CA2038
:102FC0004862216853204862686AFF25B0F5807F17
:102FD00020684FF0030B4FF47A7A81682DD021F4EA
:102FE000007181602068C16801F0800161F4207186
:102FF000C160FEF77DFF814655E002E00220BDE89A
:10300000F09F002800DBEF70287801F092FC0604A6
:10301000687801F08EFC46EA0026A87801F089FC69
:103020000643E87846EA004695F8200001F081FC66
:1030300046EA0066BAE7EF70A6E721F48071816086
:103040002068C16801F0800161F4C071C160FEF7C1
:103050004FFF814606E000BFFEF74AFFA0EB0900E4
:10306000504519D82068C068C007F5D02068C661EF
:103070002168C1F844802068816841F480718160D2
:103080002068816841F480511FE000BFFEF730FFE7
:10309000A0EB0900504506D92068456284F81DB0B0
:1030A00027770320ABE72068C0688007EED520684B
:1030B00006622168C1F848802068816841F4007187
:1030C00081602068816841F400518160084801688E
:1030D00041F40031016006480830016841F40031D4
:1030E000016020684562012060772777002086E72D
:1030F000000401402DE9F0470446007F0B460128FB
:1031000025D04FF0010984F81C9002206077587890
:1031100002B301F005FC987801F002FC9878D978A8
:1031200040EA014558781978000240EA41300543E9
:103130002168CA204862216853204862204601F075
:1031400003FC0026FF274FF0040838BB19E00220DB
:10315000BDE8F087C10603D500F0EF000A305870D3
:10316000D87801F0E6FB0204587801F0E2FB42EA6D
:103170000022987801F0DDFB0243187842EA4035DE
:10318000D6E70D480540206845602068C16821F0F9
:103190008001C160204600F085F830B120684762A8
:1031A00084F81D8026770120D2E72068476284F8E2
:1031B0001D9026770020CBE73FFFFF002DE9F04769
:1031C0000446007F0D46012811D04FF0010A84F813
:1031D0001CA0022060772068002680684FEA4060CB
:1031E00042B100281ADA287801F09AFB17E0022091
:1031F000BDE8F087002800DBEE70287801F099FB2D
:103200000204687801F095FB42EA0022A87801F0F8
:1032100090FB0243E87842EA00470AE0EE70A878A3
:10322000297840EA01476878E978000240EA0140DD
:1032300007432168CA20486221685320486220461B
:1032400001F082FB4FF0FF084FF00409C0B91448A9
:103250000740206807602068816821F48021816030
:10326000D5E90301084321688A6810438860206813
:10327000C16821F08001C160204600F013F838B128
:103280002168C1F8248084F81D9026770120AFE7DB
:103290002168C1F8248084F81DA026770020A7E7C4
:1032A0007F7F7F0070B5044600688168890614D46A
:1032B000C16821F0A001C160FEF71AFE05464FF477
:1032C0007A7606E0FEF714FE401BB04201D90320D7
:1032D00070BD2068C0688006F4D5002070BD10B5B0
:1032E00004000ED02068016821F0400101602046F2
:1032F00000F04EF80020606584F8510084F850001A
:1033000010BD012010BD90F85100704770B5040049
:1033100004D094F85100002510B106E0012070BDE2
:1033200084F85050204600F034F8022084F8510010
:103330002068016821F040010160D4E901010843DF
:10334000D4E903121143084361690843218B01F456
:1033500000710843E1690843216A0843A16A0843F0
:1033600021680860A069042101EA1040616A0843ED
:10337000216848602168E06A08612068C16921F419
:103380000061C1616565012084F85100002070BDB5
:10339000704770472DE9F843044690F8510098466D
:1033A00001286ED139B332B394F85000012868D0A7
:1033B000012684F85060122084F8510000256565CC
:1033C0002163A286E286E564A564A563A587E587F7
:1033D000A06A7703B84209D12068016821F400513E
:1033E00001602068016841F400510160A068B0F5F7
:1033F000004F03D007E00120BDE8F8832068016892
:1034000041F48041016020680168490603D40168E5
:1034100041F040010160E0680028606804D0D0B14C
:10342000E08E012817D020E010B1E08E012808D1ED
:10343000206B411C216321680078C860E08E401E2B
:10344000E086E08EF0B1434600220221204601F0E2
:1034500001FCA0B9ECE7206B21680088C860206BF4
:10346000801C2063E08E401EE086E08E50B1434613
:1034700000220221204601F0EDFB0028EBD00320C2
:10348000BAE726E0A06AB84204D12068016841F496
:1034900080510160434600220221204601F0DAFB00
:1034A00030B9434601228021204601F0D3FB20B1F0
:1034B000606D40F020006065E1E7A06818B9206801
:1034C000C1688068009084F8516084F850500020F2
:1034D00092E7022090E72DE9F8430025DDF82080EF
:1034E0000446ADF8005090F85100012803D094F83C
:1034F000510022287DD169B162B15BB194F85000CE
:10350000012876D0012684F8506094F851000128F3
:1035100003D005E00120BDE8F883322084F8510093
:103520006565A263A387E3872163A386E386A56419
:10353000E564A06A4FF40057B84209D120680168D9
:1035400021F4005101602068016841F400510160DC
:1035500020680168490603D4016841F04001016018
:10356000E0684FF48271B0F5006F606807D0002802
:1035700067D088426ED1E08E012862D06AE020B127
:1035800088420CD1E08E012809D1206B2168008887
:10359000C860206B801C2063E08E401EE086E08EB9
:1035A00040BBA06AB84244D12068016841F4805110
:1035B00001603EE02068C068A16B0880A06B801CA1
:1035C000A0639EE0434600220221204601F042FB18
:1035D000002874D1206B21680088C860206B801C93
:1035E0002063E08E401EE086E08E50B9A06AB842AB
:1035F00001E0C7E017E004D12068016841F4805180
:103600000160434600220121204601F023FB0028EF
:103610006FD12068C068A16B0880A06B801CA0637C
:10362000E08F401EE087E08E0028CBD16068002844
:103630006AD1434600220121204601F00BFBF0BB7A
:10364000B8E7206B411C216321680078C860E08ED8
:10365000401EE086E08E98BBA06AB84204D1206884
:10366000016841F480510160434600220121204657
:1036700001F0F0FA18BB2068C068A16B087040E048
:10368000434600220221204601F0E4FAB8B9206B3B
:10369000411C216321680078C860E08E401EE086EE
:1036A000E08E38B9A06AB84204D12068016841F4BC
:1036B00080510160002243460121204601E018E0CC
:1036C0000BE001F0C7FAA0B92068C268A06B411CEA
:1036D000A1630270E08F401EE087E08E0028CFD10A
:1036E000606888B9434600220121204601F0B2FA01
:1036F00008B103200FE72068C168A06B421CA263D9
:103700000170E08F401EE087A06AB84210D14346A6
:1037100000220121204601F09DFA18B1606D40F0B1
:1037200002000FE02068C068ADF80000BDF800009E
:10373000434601228021204601F08CFA20B1606DC1
:1037400040F020006065D4E784F85160A06AB84278
:1037500014D120688168C943C9060FD4616D41F056
:1037600002016165016821F400510160206801686F
:1037700041F40051016084F85050CBE684F8505079
:103780000020C8E60220C6E610B5401EB0F1807FDA
:1037900001D3012010BD4FF0E02460610F216017BC
:1037A00000F02AFC0020A06107202061002010BD4D
:1037B000704770B5040004D094F83900002510B1AA
:1037C00006E0012070BD84F83850204600F020F853
:1037D000022084F839002068C16821F40051C160DA
:1037E000204601F077FC2068016921F490410161D5
:1037F0002068416921F02A0141612068C16841F4D3
:103800000051C160E563012084F83900002070BDDB
:1038100000B500681A4987B088422FD1194801685D
:1038200041F480410160006800F480400590154833
:10383000001F016841F0010101600068694600F065
:10384000010005904FF4C06000900220019001201B
:10385000029003200390072004900B48FEF778FAAB
:103860000A480068C16841F02001C16000220E21B1
:103870002520FEF7B9FB2520FEF7ABFB07B000BD06
:103880000038014020380240000002402804002097
:103890002DE9F047044690F8390099460D46012875
:1038A00001D0222858D12DB322B394F83800012832
:1038B00052D0012684F838600027E76394F8390075
:1038C00022281AD05FF0120084F83900A284E28422
:1038D0004FF48058E08C4B46401EE084A0684FF0C7
:1038E000000240454FF08001204613D101F042FD17
:1038F00008BB04E00120BDE8F0873220E4E7288817
:103900002168C0F308004860206908B16D1C08E018
:10391000AD1C06E001F02EFD68B9216815F8010B19
:103920004860E08C0028D5D14B460022402120463B
:1039300001F020FD08B10320DDE794F839003228BA
:1039400006D084F8396000BF84F838700020D2E7D0
:10395000222084F83900F7E70220CCE7FEE708B51B
:1039600005208DF800009DF80000002803D09DF888
:103970000000401EF5E708BD70B501F021F80E4DBE
:103980004FF48064002221462846FEF7ACFA00225C
:1039900061002846FEF7A7FAFFF7E1FF0122214662
:1039A0002846FEF7A0FAFFF7DAFF21462846BDE8D1
:1039B00070400022FEF797BA0004024010B500F0F4
:1039C000F3F8A22000F0B6F800F036F9012858D03C
:1039D000002000F0AFF800F02FF9012851D00020AE
:1039E00000F0A8F800F028F901284AD0132000F0D0
:1039F000A1F800F021F9012843D000F0D5F8A22069
:103A000000F098F800F018F901283AD0092000F0E9
:103A100091F800F011F9012833D0802000F08AF8E5
:103A200000F00AF901282CD0802000F083F800F083
:103A300003F9012825D0802000F07CF800F0FCF884
:103A400001281ED0802000F075F800F0F5F801285C
:103A500017D0002000F06EF800F0EEF8012810D02A
:103A6000822000F067F800F0E7F8012809D0012073
:103A700000F060F800F0E0F8012802D000F0B8F89B
:103A8000002010BD70B500F09BFF0E4D4FF4806418
:103A9000002221462846FEF726FA0122D1022846B6
:103AA000FEF721FAFFF75BFF012221462846FEF7C9
:103AB0001AFAFFF754FF21462846BDE8704000225D
:103AC000FEF711BA000402402DE9F0470825002452
:103AD00000F058FF0122DFF85880D60231464046F8
:103AE000FEF701FAB146EF01464616E06006040E05
:103AF000002239463046FEF7F6F9FFF730FF012283
:103B000039463046FEF7EFF9FFF729FF49463046C0
:103B1000FEF7E4F908B144F001046D1EEDB2E5D200
:103B2000002239463046FEF7DEF92046BDE8F08730
:103B3000000402402DE9F0410646082400F040FF51
:103B40004FF40068E701174D1DE000BFFEF7CBF909
:103B5000300601D5012200E0002241462846FEF74A
:103B6000C2F97006060EFFF7FAFE01223946284612
:103B7000FEF7B9F9FFF7F3FE002239462846FEF7B3
:103B8000B2F9FFF7ECFE641EE4B24FF000023946D2
:103B90002846DBD2FEF7A7F941462846BDE8F041AA
:103BA000FEF79CB90004024070B500F009FF012245
:103BB0000E4DD40221462846FEF795F901229602C1
:103BC00031462846FEF78FF9FFF7C9FE002221464D
:103BD0002846FEF788F9FFF7C2FE00223146284644
:103BE000FEF781F9BDE87040FFF7B9BE000402405E
:103BF00070B500F0E5FE01220E4D940221462846E4
:103C0000FEF771F96600002231462846FEF76BF98F
:103C1000FFF7A5FE012231462846FEF764F9FFF7BB
:103C20009EFE002221462846FEF75DF9BDE8704061
:103C3000FFF795BE0004024070B500F0A3FE184CDB
:103C40004FF48065002229462046FEF74CF9FFF725
:103C500086FE0122D60231462046FEF744F9FFF7E0
:103C60007EFE012229462046FEF73DF9FFF777FE4A
:103C700031462046FEF732F940B1FFF770FE0022D0
:103C800029462046FEF72FF9012070BDFFF767FE99
:103C9000002229462046FEF726F9002070BD0000CC
:103CA000000402400548044901600421416040F6D7
:103CB000FF718160FEF722B90030004088040020C7
:103CC0002DE9F041334886B0016841F020010160E0
:103CD000016801F020010591016841F001010160D6
:103CE000016801F001010591016841F002010160E4
:103CF0000068294F00F00200059001220821384693
:103D0000FEF7F1F8DFF894804FF440640122214679
:103D10004046FEF7E8F8012211463846FEF7E3F880
:103D2000012202213846FEF7DEF8009401AA0124A0
:103D30000025032682E8700069464046FEF708F831
:103D400008208DE8710069463846FEF701F8022028
:103D50008DE8710069463846FDF7FAFF01AA009424
:103D600082E8700069463846FDF7F2FF4020009077
:103D70000B48CDE9010469464046FDF7E9FF002202
:103D80000A211720FEF730F91720FEF722F906B0B6
:103D9000BDE8F0811C3802400000024000040240EF
:103DA0000000211010B514488AB012490024C0E95F
:103DB00000147F218160FF21C0E903144461846104
:103DC000FFF742F84FF48070099001208DF8200031
:103DD000800707904FF0803005904FF0706001949D
:103DE00006900094002269460348FFF7B7F80AB02E
:103DF00010BD0000002800406804002008B5002520
:103E00007548009502F0DCFC734C744FDFF8D081EC
:103E1000DFF8D0A1744E143C4FF4007901213069D1
:103E200002F0E4FE0028F9D04FF0FF3B594630691C
:103E300002F0DCFE0028F9D167496B4814390830DC
:103E400002F090FC684964480831CA7802F5FA62C9
:103E500042614A7802618978C16021788160617825
:103E60004160A17801604FF47A71706902F052FEEE
:103E70000028DBD158495C481439083001F096F825
:103E8000A0781E2801D100F0C7F8A07800287DD1C5
:103E90006278D8F8001008EB8202504851601E2169
:103EA0002230C8F80050FDF765FAA7F85E00706888
:103EB00080B13B8CA7F85E30A7F86030207861783D
:103EC00000EBC00202EB001001EB80007866A7F85F
:103ED0006830F866B7F95E00B7F96810884202DC0E
:103EE000617801290CD1317851B9A7F8680021789F
:103EF000627801EBC10303EB011102EB8101F9666A
:103F0000B7F96010884202DB6178012901D131786C
:103F100019B1307801280CD016E0A7F8600020789D
:103F2000617800EBC00202EB001001EB80007866C4
:103F30000AE04FF44870A7F8600001214FF6A8503E
:103F4000F966A7F86800796649462848FCF771F9D0
:103F500021492648009500F0AFF80090607850B9EC
:103F600041460095009A01EB82025560009A521C6E
:103F700000923C2AF6D39AF81410B0FBF1F201FB40
:103F8000120078B971B17D21184800E01FE000F8F7
:103F9000FC1F0D2141700A218170C570134914A0C6
:103FA00001F0B4FE0C491048143908300095FDF7B3
:103FB000D1FA0090707848B90098012341024A462E
:103FC0000A48FDF77BFA08B1FDF724FA75607069BD
:103FD00002F07CFD2AE70000FC0300209805002089
:103FE0000806002004070020600000201C070020B5
:103FF00025730000FEE770470907090E002806DA5E
:1040000000F00F0000F1E02080F8141D704700F16F
:10401000E02080F8001470473EB509200090012090
:1040200001900520029069461C48FDF793FB1B4850
:10403000FDF78FFD4FF47A711848FDF737FD184CE6
:1040400008B1A06803E01548FDF728FCA060FCF764
:1040500094FB1449FCF7ABF9FCF7F9FB4FF066321F
:10406000114BFCF789FAFCF71DFC1049FCF76DF9C0
:104070000F49E060FCF769F9FCF7E9FB00220D4B02
:10408000FCF7D3F9FCF7CAFB2061912801D99120F4
:1040900002E0372801D2372020613EBDEC04002029
:1040A0000407002000F07F4566660A400000C0401B
:1040B000000020410000E03FF0B585B00D4604004F
:1040C0001DD0FEA2032101F031FEFD4F0646787897
:1040D0003B79FA78B9788DE80F003B78F9A2062190
:1040E000A01C01F023FE064465B195E80F00CDE960
:1040F0000310CDE90132286900906B690AE00020C5
:1041000005B0F0BD002001900290039004904FF4A0
:10411000FA630090EEA20F21E01D01F007FEF34DBF
:10412000064404F11500B5F95E30002B02DA5B425B
:10413000EFA200E0F0A2052101F0F8FDB5F968302A
:10414000064404F11900002B02DA5B42E8A200E009
:10415000E9A2052101F0EAFD0644E9A2052104F1E6
:104160001D00EB6E01F0E2FDB5F96030064404F18C
:104170002100002B02DA5B42DDA200E0DEA2052175
:1041800001F0D4FD0644DEA2052104F125006B6E8A
:1041900001F0CCFD8519DCA2332104F1290001F0E6
:1041A000C5FD4619D14DCFA27035032104F15B0046
:1041B000AB6801F0BBFD0644CAA2032104F15D0017
:1041C000EB6801F0B3FD0644C6A2032104F15F00D1
:1041D0002B6901F0ABFD0644C2A2032104F161008A
:1041E0006B6901F0A3FD0644BEA2032104F1630044
:1041F000AB6901F09BFD0644BAA2032104F16500FE
:10420000EB6901F093FD0644B6A2032104F16700B7
:104210002B6A01F08BFD0644B2A2032104F1690070
:104220006B6A01F083FD0644AEA2032104F16B002A
:10423000AB6A01F07BFD0644AAA2032104F16D00E4
:10424000EB6A01F073FD0644A6A2032104F16F009E
:104250002B6B01F06BFD0644A2A2032104F1710057
:104260006B6B01F063FD06449EA2032104F1730011
:10427000AB6B01F05BFD06449AA2032104F17500CB
:10428000EB6B01F053FD064496A2032104F1770085
:104290002B6C01F04BFD064492A2032104F179003E
:1042A0006B6C01F043FD06448EA2032104F17B00F8
:1042B000AB6C01F03BFD06448AA2032104F17D00B2
:1042C000EB6C01F033FD064486A2032104F17F006C
:1042D0002B6D01F02BFD064482A2032104F1810025
:1042E0006B6D01F023FD06447EA2032104F18300DF
:1042F000AB6D01F01BFD06447AA2032104F1850099
:10430000EB6D01F013FD064476A2032104F1870052
:104310002B6E01F00BFD064472A2032104F189000B
:104320006B6E01F003FD06446EA2032104F18B00C5
:10433000AB6E01F0FBFC06446AA2032104F18D0080
:10434000EB6E01F0F3FC064466A2032104F18F003A
:104350002B6F01F0EBFC064462A2032104F19100F3
:104360006B6F01F0E3FC06445EA2032104F19300AD
:10437000AB6F01F0DBFC06445AA2032104F1950067
:10438000EB6F01F0D3FC064456A2032104F1970021
:10439000D5F8803001F0CAFC064452A2032104F192
:1043A0009900D5F8843001F0C1FC06444DA20321E8
:1043B00004F19B00D5F8883001F0B8FC064449A20E
:1043C000032104F19D00D5F88C3001F0AFFC0644C8
:1043D00044A2032104F19F00D5F8903001F0A6FC1F
:1043E000064440A2032104F1A100D5F8943001F065
:1043F0009DFC06443BA2032104F1A300D5F89830AC
:1044000001F094FC064437A2032104F1A500D5F87D
:104410009C3001F08BFC064432A2032104F1A7007A
:10442000D5F8A03001F082FC06442EA2032104F14D
:10443000A900D5F8A43001F079FC064429A2032193
:1044400004F1AB00D5F8A83001F070FC064425A2B9
:10445000032104F1AD00D5F8AC3001F067FC06444F
:1044600020A2032104F1AF00D5F8B03001F05EFCCA
:1044700006441CA2032104F1B100D5F8B43001F0C8
:1044800055FC064417A2032104F1B300D5F8B83057
:1044900001F04CFC064413A2032104F1B500D5F849
:1044A000BC3001F043FC06440EA2032104F1B70026
:1044B000D5F8C03001F03AFC06443FE05B44000010
:1044C0000407002025632563256325632563000019
:1044D00025303475253032752530327525303275EA
:1044E0002530327525303275000000009805002017
:1044F0002D253033750000002B253033750000006A
:10450000253034750000000030303030303030302D
:10451000303030303030303030303030303030309B
:10452000303030303030303030303030303030308B
:10453000303030303030303030300000AFF25C029C
:10454000032104F1B900D5F8C43001F0EFFB0644B3
:10455000AFF27002032104F1BB00D5F8C83001F0BE
:10456000E5FB0644AFF28402032104F1BD00D5F857
:10457000CC3001F0DBFB0644AFF29802032104F1DA
:10458000BF00D5F8D03001F0D1FB0644AFF2AC0249
:10459000032104F1C100D5F8D43001F0C7FB064473
:1045A000AFF2C002032104F1C300D5F8D83001F006
:1045B000BDFB0644AFF2D402032104F1C500D5F8D7
:1045C000DC3001F0B3FB0644AFF2E802032104F152
:1045D000C700D5F8E03001F0A9FB0644AFF2FC02B9
:1045E000032104F1C900D5F8E43001F09FFB064433
:1045F000AFF21012032104F1CB00D5F8E83001F03E
:1046000095FB0644AFF22412032104F1CD00D5F846
:10461000EC3001F08BFB0644AFF23812032104F1B9
:10462000CF00D5F8F03001F081FB0644AFF24C1218
:10463000032104F1D1006B6801F078FB85190EA20B
:10464000262104F1D30001F071FB05441449F868F8
:10465000FBF77BFEFCF7AFF8C3B212A2042104F112
:10466000F80001F063FB054410A2022104F1FB00F5
:1046700001F05CFB284443E53030303030303030DE
:10468000303030303030303030303030303030302A
:1046900030303030303030303030303030000000AA
:1046A0000000204125303375000000005D0000004F
:1046B00070B5FFF779FAA220FFF73CFAFFF7BCFAD2
:1046C000012863D00220FFF735FAFFF7B5FA012879
:1046D0005CD0FFF769FAA320FFF72CFAFFF7ACFADA
:1046E000012853D0FFF7F0F9294C2070FFF744F967
:1046F000FFF7EAF96070FFF73FF9FFF7E5F9A070FF
:10470000FFF73AF9FFF7E0F9E070FFF735F9FFF747
:10471000DBF92071FFF730F9FFF7D6F96071FFF789
:104720002BF9FFF7D1F9A071FFF7ACF9FFF760FAA9
:104730006179A07901F01F016171E17801F03F0119
:10474000E170A17801F03F01A170617801F07F0173
:104750006170217801F07F01217000F0E1F8E51F20
:104760002870607900F0DCF86870E07800F0D8F824
:10477000E870A07800F0D4F82871607800F0D0F8E4
:104780006871207800F0CCF8A871002070BD00009E
:10479000870000202DE9F0471D46DDE908769046A8
:1047A0008946632800D90020B9F10C0F01D94FF0D8
:1047B0000109B8F11F0F01D94FF00108172D00D9D9
:1047C00000253B2F00D900273B2E00D9002600F002
:1047D000B0F82E4C2070484600F0ABF860704046B0
:1047E00000F0A7F8E070284600F0A3F820713846E2
:1047F00000F09FF86071304600F09BF8A071FFF761
:10480000D3F9A220FFF796F9FFF716FA01283AD05C
:104810000220FFF78FF9FFF70FFA012833D0A079B4
:10482000FFF788F9FFF708FA01282CD06079FFF725
:1048300081F9FFF701FA012825D02079FFF77AF9ED
:10484000FFF7FAF901281ED0E078FFF773F9FFF7B8
:10485000F3F9012817D00320FFF76CF9FFF7ECF903
:10486000012810D06078FFF765F9FFF7E5F9012816
:1048700009D02078FFF75EF9FFF7DEF9012802D0B2
:10488000FFF7B6F90020BDE8F087000080000020A7
:10489000704701210846FDF7FDBB0000F8B507464B
:1048A0001A48002600681A4D10F0F00F20D1174C5E
:1048B0001C342068C00002D5FDF7D8FB0DE020684D
:1048C00040F080502060206800F080500090FDF79C
:1048D000CDFB216821F080512160B0F5C05F07D188
:1048E000B7F5404F04D12868012640F00400286045
:1048F000286820F0010030432860286800F001009B
:10490000B04201D00120F8BD0020F8BD08380240B7
:10491000003C02400148FEF71BBA0000680400207A
:10492000010901EB810100F00F0000EB4100C0B272
:104930007047002102E00A38C0B2491C0A28FAD2A6
:10494000090740EA1160704770B504460068C16805
:10495000490614D44FF0FF31C160FDF7C9FA05468E
:104960004FF47A7607E000BFFDF7C2FA401BB04271
:1049700001D9032070BD2068C0684006F4D500202E
:1049800070BD00000C4800B5016887B041F002011D
:1049900001600068694600F0020005904FF4006075
:1049A0000090002001900290032003900348FDF73F
:1049B000CFF907B000BD00001C38024000040240DF
:1049C0000C4800B5016887B041F002010160006841
:1049D000694600F0020005904FF40060009001204D
:1049E000019000200290032003900348FDF7B0F9E6
:1049F00007B000BD1C3802400004024070B586B00C
:104A000014216846FBF715FC13480024016841F0A7
:104A10000101016000684FF4807500F0010005900D
:104A20000120CDE90050029003200C4E039069460E
:104A30003046FDF78DF900F067F90122294630462E
:104A4000FDF751FAFF2000F035F8641CE4B2092CA0
:104A5000F8D906B070BD00001C38024000000240CA
:104A60000EB500200190401E02900748012301AAC4
:104A70000068009002A90548FEF72DFD08B100F07E
:104A800039F90198C0B20EBD7800002094040020CE
:104A900070B505464FF6FF7400E0641EFFF7E0FFB7
:104AA000A84202D0002CF8D102E00CB1002070BD69
:104AB000032070BD08B501228DF800000548694645
:104AC00003680548FEF766FC002801D000F012F9E3
:104AD00008BD000078000020940400207CB500246C
:104AE000009440F040008DF80000080E8DF80100A1
:104AF000080C01948DF80200080A8DF804108DF856
:104B000003008DF805201D4622464FF480710948A8
:104B1000FDF7E9F96E46305DFFF7CCFF641C062C0B
:104B2000F9D3802D03D02846FFF7B2FF7CBD0020CB
:104B30007CBD00000000024010B5012211020448B3
:104B4000FDF7D1F9BDE81040FF20FFF7B3BF00002B
:104B50000000024010B5FFF7C1FF0446FFF7ECFF6D
:104B6000204610BD10B50348FEF7B9FBBDE8104064
:104B700000F002B84005002010B51248FEF7C3FB54
:104B800000281DD10F481049012201601021C16188
:104B9000426100218160022202610722C0E90A12FB
:104BA000C1604FF400720162826141624FF4827110
:104BB000416000F00BF8BDE810400248FEF7A6BBCC
:104BC00010BD0000400500200030014070B586B0E7
:104BD00014216846FBF72DFB1C48016841F00101D8
:104BE0000160016801F001010591016841F00101D6
:104BF00001600068022400F0010005902020CDE94A
:104C000000040120029003200525CDE90305104E84
:104C100069463046FDF79CF880200090694604956F
:104C200002943046FDF794F84020009069463046E3
:104C3000FDF78EF80548001D016841F480510160C0
:104C4000006800F48050059006B070BD1C3802402A
:104C5000000002402DE9F0471D4690460E460446EE
:104C6000FDF746F907465FEA08004FF000084FF4E9
:104C7000005A4FF0010926D034E0681C23D025B13A
:104C8000FDF736F9C01BA8421DD92068416821F004
:104C9000E00141602068016821F040010160A06AE4
:104CA000504509D12068016821F400510160206855
:104CB000016841F40051016084F8519084F85080FB
:104CC0000320BDE8F0872068806836EA0000D4D170
:104CD0000DE0681C06D0002DD7D0FDF709F9C01BE8
:104CE000A842D2D82068806836EA0000F1D00020BF
:104CF000E7E7000010B50348FEF7F1FABDE8104001
:104D000000F002B89404002010B51148FEF7FBFA39
:104D100000281CD10E480F49012201600021C16109
:104D200042618160022202610722C0E90A12C16069
:104D30004FF400720162826141624FF482714160FE
:104D400000F00AF8BDE810400148FEF7DFBA10BDD8
:104D5000940400200038004070B586B014216846E5
:104D6000FBF767FA1D48016841F002010160016824
:104D700001F002010591016841F002010160006843
:104D8000022400F0020005904FF40050CDE9000429
:104D90000120029003200525CDE90305104E694648
:104DA0003046FCF7D5FFA0030090694604950294B5
:104DB0003046FCF7CDFF6003009069463046FCF7B3
:104DC000C7FF06480830016841F48041016000686F
:104DD00000F48040059006B070BD00001C38024011
:104DE0000004024010B501F031FFBDE81040FDF7AE
:104DF000B5B80000FEF756FF284CDFF8A480294D17
:104E000000260121A86801F0F1FE0028F9D0264F04
:104E10004FF0FF394946A86801F0E8FEB0BB4FF4F7
:104E2000FA71E86801F076FE80BB00221B491F483A
:104E3000FDF7DEFF00221B491C48FDF7B7FF607835
:104E4000192804D1A0780F2801D102F00BF9A0781D
:104E5000C00701D102F0F8F8A078012813D16078DA
:104E600088B913484FF6A851C8F8F460A0F8681044
:104E70004FF44871C66620F8601F466020781428F9
:104E800001D1C8F8F860E86801F020FE3868002811
:104E9000C0D00548FDF75BF8BCE70000C00100206A
:104EA000080600203C000020880400206804002040
:104EB00098050020F0B593B014210DA8FBF7B9F9BF
:104EC00034216846FBF7B5F9012602250096E80370
:104ED0000196CDE909504FF44020AF05CDE90B070D
:104EE0006846FDF781FB002470B1102000950995FC
:104EF000CDE90360C003CDE90A400C976846FDF791
:104F000073FB08B1FDF7A2F81248016841F0805127
:104F10000160006800F0805012900F48016821F491
:104F2000C05141F4006101604168C943C906FBD525
:104F30000F200D900320CDE90E04109401210DA83F
:104F40001194FDF783F9002801D0FDF77FF813B025
:104F5000F0BD000024380240007000400F48016896
:104F600041F4807101600D4908310A680C4B1A4008
:104F70000A6002680B4B1A400260026822F4802229
:104F80000260086820F47D0008600020091D0860A8
:104F900005494FF00060086070470000003802408B
:104FA0000CC0FF88FEFFFEEE08ED00E02DE9F041A9
:104FB0008878394C45086FF03B0020840122042199
:104FC0000020FCF733F9A0F53852E03A42F21173B1
:104FD000324920609A4201D3012200E000220A7087
:104FE000FBF7CBFB2E49FBF7E2F9FBF730FC002285
:104FF0002C4BFBF7C1FA6FF00302FBF79EFBFBF7AC
:1050000051FC6060FBF723FCD4E90623FBF726FB89
:10501000FBF748FCA060FCF7D7FA2349E060497D24
:1050200041B1FBF714FC266802460B4631461FA02F
:1050300000F06CFED4E90301FBF781F9214E224F09
:10504000E06010F1FF4F06D2FBF701FC32463B4611
:10505000FBF7EBF905E0FBF7FAFB32463B46FBF7C3
:1050600085FAFBF71FFC1949E060FBF76EF9FBF7C7
:1050700089FB00B24FF448712084884200DD21840E
:10508000B4F920101248814200DA208404EB450173
:10509000208C4884BDE8F081980500206000002045
:1050A00000FF7F470000F43F0407002054454D50A7
:1050B0005F41443D25640954454D505F543D25668C
:1050C0000D0A00009A9999999999A93F00002041E9
:1050D000A8FDFFFF2DE9F041044600680169E26880
:1050E00021F44051114301612169A068E26908433C
:1050F0006169114308432168CA6849F20C639A4305
:105100000243CA6020684169A26921F440711143D9
:105110004161E1696425B1F5004F954821684FF080
:1051200032083DD081427AD1FDF700FA00EBC00190
:1051300001EB001061688900B0FBF1F6FDF7F6F9AC
:1051400000EBC00101EB001061688900B0FBF1F0D9
:10515000B0FBF5F06FF01801484306EB800108EB57
:105160000110B0FBF5F000F0F006FDF7DFF900EB01
:10517000C00101EB001061688900B0FBF1F0B0FBE9
:10518000F5F006EB0016FDF7D1F900EBC00101EBDD
:10519000001061688900B0FBF1F7FDF7C7F9D0E0B6
:1051A00081423DD1FDF7C2F900EBC00101EB0010D7
:1051B00061684900B0FBF1F0B0FBF5F00601FDF7C6
:1051C000B5F900EBC00101EB001061684900B0FBCC
:1051D000F1F7FDF7ABF900EBC00101EB00106168DE
:1051E0004900B0FBF1F0B0FBF5F06FF01801484357
:1051F00007EB800108EBC100B0FBF5F000F0F80010
:1052000006EB4006FDF792F900EBC00101EB001040
:1052100061684900B0FBF1F7FDF788F93CE055E023
:10522000FDF76CF900EBC00101EB0010616849006B
:10523000B0FBF1F0B0FBF5F00601FDF75FF900EB14
:10524000C00101EB001061684900B0FBF1F7FDF708
:1052500055F900EBC00101EB001061684900B0FB9B
:10526000F1F0B0FBF5F06FF01801484307EB800157
:1052700008EBC100B0FBF5F000F0F80006EB4006CB
:10528000FDF73CF900EBC00101EB0010616849003B
:10529000B0FBF1F7FDF732F900EBC00101EB0010B4
:1052A00061684900B0FBF1F0B0FBF5F06FF0180158
:1052B000484307EB800108EBC100B0FBF5F000F0BC
:1052C0000700216830448860BDE8F081FDF716F9D9
:1052D00000EBC00101EB001061688900B0FBF1F642
:1052E000FDF70CF900EBC00101EB001061688900CB
:1052F000B0FBF1F0B0FBF5F06FF01801484306EB9E
:10530000800108EB0110B0FBF5F000F0F006FDF7AE
:10531000F5F800EBC00101EB001061688900B0FBFB
:10532000F1F0B0FBF5F006EB0016FDF7E7F800EB47
:10533000C00101EB001061688900B0FBF1F7FDF7D7
:10534000DDF800EBC00101EB001061688900B0FBE3
:10535000F1F0B0FBF5F06FF01801484307EB800166
:1053600008EB0110B0FBF5F000F00F00A9E700001A
:10537000003801402DE9F0471D4690460E46044690
:10538000FCF7B6FD07465FEA08004FF000094FF052
:10539000010808D030E0681C05D095B1FCF7A8FDE5
:1053A000C01BA8420DD82068006836EA0000F2D180
:1053B00027E0681C20D025B1FCF79AFDC01BA8424D
:1053C0001AD92068C16821F08001C1602068C168D5
:1053D00021F02001C1602068C16821F48071C160A2
:1053E0002068416921F00101416184F8398084F825
:1053F00038900320BDE8F0872068006836EA000096
:10540000D7D00020F6E70000F8B53D4C21680868C9
:10541000C96810F0010F01F4807104D019B1E06B7C
:1054200040F00100E063206801684069C1F3400179
:1054300000F0010021B118B1E16B41F00401E1631A
:1054400021680968C1F3800121B118B1E16B41F015
:105450000201E16321680968C1F3C00121B118B1FB
:10546000E06B40F00800E06320680168C268C1F3A7
:10547000401102F02002012571B36AB34068C2B244
:105480002048467816BB00231F4F3C2A04D00178E1
:10549000012905D043601FE005703A7045601BE0AC
:1054A00041687A54491CA1F580774160FF3F02D0E2
:1054B0003E2A05D00AE03E2A02D04570436007E04C
:1054C000B1F5FF7F02D84570037001E0012E03D1D2
:1054D000006908B101F066FB20680168C1680168D5
:1054E000C168E16B002909D001684068009084F828
:1054F00039502046BDE8F840FEF75AB9F8BD000023
:10550000280400204C000020D40100200849074A4C
:10551000C1E90020002088600C22C860C1E90402B3
:105520008861C8610846FEF744B9000000380140B0
:1055300028040020FEE7000088B0002403948DF8C2
:105540001C4001F045FA01F071F9FF4FDFF8FCB3A0
:10555000DFF8F09307F5007AABF10805012128691F
:1055600001F044FB0028F9D04FF0FF31286901F029
:105570003DFB0028F8D1F448FAF766FE1D2805D057
:10558000F148FAF761FE09287ED081E20622EE4951
:10559000EFA0FAF760FE10B9787D312806D0062218
:1055A000E949EDA0FAF757FE90B114E0ECA000F045
:1055B000ADFBEC48F97D08220170397E4170797E9F
:1055C0008170B97EC170F97E01710146E64898E2AA
:1055D000387D312815D00422DB49E4A0FAF73BFEE0
:1055E000002869D00422D849E2A0FAF734FE002846
:1055F0007DD00622D449D6A0FAF72DFE002877D018
:1056000079E1D7A000F082FBB87CF97C303800EB60
:1056100080006FF02F0606EB4000084400F0FF0EFC
:105620008AF802E0387C7A7C303800EB800006EBA8
:1056300040001044C0B28AF801000346B87BFA7BF0
:10564000303800EB800006EB40001044C0B20690FA
:105650008AF80000397B787B303901EB810106EB59
:1056600041010844C2B28BF80220B97A97F80BC006
:10567000303901EB810106EB41016144C9B28BF87D
:10568000011097F809C000E0FDE197F80880A8F143
:10569000300808EB880806EB48066644F6B28BF83B
:1056A0000360CDE9003E3046069BFFF773F8002803
:1056B00001D101F0D7FC9FE2A9A000F027FBB87A46
:1056C000FA7A303800EB80006FF02F0101EB4000D8
:1056D0001044C3B28BF80130387B7E7B303800EB4E
:1056E000800001EB400030445A46C0B201E074E053
:1056F000F8E08BF802008646B87BFE7B303800EB82
:10570000800001EB40003044C6B28AF8006097F890
:1057100010C0B046ACF1300C7E7C0CEB8C0C01EB75
:105720004C0C6644F6B28AF801600C2B01D90123B7
:105730005370BEF11F0F02D901238BF80230B8F16C
:10574000170F01D83B2E01D98AF8014038797A79B0
:10575000303800EB800001EB400010448DF81C0055
:10576000039486497948FBF7F5FE03904FF40076E1
:1057700010E031467348FAF75CFD039801234102BB
:1057800032467048FBF760FE58B1FBF743FE0398C2
:10579000401C03909DF81C00411E8DF81C10E8D29F
:1057A0002AE20222674976A0FAF755FD88B999F8EE
:1057B000FB1048465D290CD17D2100F8FC1F0D210E
:1057C00041700A21817089F8FF405E496DA000F0A8
:1057D0009DFA642001F06BF9D9E761A000F096FA18
:1057E000B87AFA7A303800EB80006FF02F0101EBC5
:1057F00040001044C2B28BF801203B7B7E7B303BE3
:1058000003EB830301EB43033344DBB28BF8023039
:1058100097F80EC0FE7BACF1300C0CEB8C0C01EB5E
:105820004C0C664406F0FF0C8AF800C058468AF813
:1058300001400C2A01D9012242701F2B02D90122FA
:105840008BF80220BCF1170F01D98AF80040387993
:105850007A79303800EB800001EB400010448DF87D
:105860001C00039445493948FBF774FE03904FF43C
:10587000007830E0464641463248FAF7DAFC0398B1
:105880000123410232462F48FBF7DEFD00BB99F8A9
:1058900011004E4630281BD1B07C302818D102228E
:1058A000284937A0FAF7D7FC78B996F8FB005D28AD
:1058B0000BD17D2006F8FC0F0D2070700A20B0700F
:1058C000F47020492FA000F021FA642001F0EFF8D5
:1058D00003983C3003909DF81C00411E8DF81C106D
:1058E000C8D289E1B87D302805D1787D302802D131
:1058F000387D30280CD00622134923A0FAF7ABFCE0
:10590000E8B10422104922A0FAF7A5FCC0B173E166
:1059100013A000F0FBF919490C4800F023FF9BF895
:1059200003101D4801F5FA6141619BF80110016106
:105930009BF80210C1609AF8002082602EE048E0D7
:1059400087E000001C070020D40100205400002044
:105950003C443030303000003C44303031300000C6
:10596000540D0A0004070020000008083C443130B0
:10597000000000003C44313200000000D40300204D
:105980005B440000257300003C443032303000009E
:105990003C44303100000000FC0300209AF8012054
:1059A00042609AF80210016001469948FEF784FBB4
:1059B000039048467D2100F8FC1F0D2141700A210B
:1059C0008170934989F8FF40AFF2480000F09EF9DA
:1059D00012E1AFF2740000F099F9B8792B2802D0E7
:1059E0002D281AD031E0387A3038FAF7BDFEDFF8CA
:1059F00024824146FAF7DBFC0646F8793038FAF79C
:105A0000B3FE3146FAF749FC834908614FEA0801C1
:105A1000FAF79BFCFAF7CFFE9BE0F8793038FAF7FB
:105A2000A3FE0646387A3038FAF79EFE7B49FAF72D
:105A3000BEFC3146FAF783FC774908617549FAF7ED
:105A400084FCFAF7B8FE643083E0042203A97448AA
:105A500057E0AFF2F40000F059F93879797930382D
:105A600000EB8002D02000EB420008446D49C0B238
:105A70003C28087501D96CA0BCE06A49684801223D
:105A8000143108303DE06D496DA0FAF7F1FB28B103
:105A90006A48FAF7D9FB092803D007E0FCF7D6FAE1
:105AA000AAE0664969A0FAF7E3FB28B16348FAF770
:105AB000CBFB0C2802D007E067A09BE005225F49E2
:105AC00069A0FAF7C8FB30B10B225C4968A0FAF76D
:105AD000C2FBC8B11DE0781D00F0B4FD0022674B89
